:100000000C9402010C9460030C9491030C94C203B1
:100010000C94F3030C9424040C9455040C9486045F
:100020000C94B7040C9424010C9424010C94240126
:100030000C9424010C9424010C9424010C942401AC
:100040000C9424010C9424010C9424010C9424019C
:100050000C9424010C9424010C9424010C94E804C5
:100060000C9424010C9424010C9424010C9424017C
:100070000C9424010C9424010C9424010C9424016C
:100080000C9424010C9424010C9424010C9424015C
:100090000C9424010C9424010C9424010C9424014C
:1000A0000C9424010C9424010C9424010C9424013C
:1000B0000C9424010C9424010C9424010C9424012C
:1000C0000C9424010C9424010C9424010C9424011C
:1000D0000C9424010C9424010C9424010C9424010C
:1000E0000C94240100002100240027002A002D0088
:1000F0003000330001010000040107010A01000083
:100100002200250028002B002E00310034000201BF
:100110000000050108010B0100002000230026005B
:1001200029002C002F00320000010000030106010D
:10013000090105050505070508080808020202026D
:100140000A0A080804040404010101010101010173
:100150000303030303030303040707070C0C0C0C3E
:100160000C0C0C0C02020202060606060606060627
:100170000B0B0B0B0B0B0B0B0102102020080810B4
:100180002040102040800201020108040201010207
:1001900004081020408080402010080402018004E0
:1001A000020180402010080402010804020101023B
:1001B0000408102040800102040810204080000044
:1001C000090A02080B0C0D070603040100000000D9
:1001D000000000000000000000000000000000001F
:1001E0000000000000000000000011100F000000DF
:1001F00000000000000000000000000000000000FF
:100200000000000011241FBECFEFD1E2DEBFCDBF42
:1002100000E00CBF12E0A0E0B2E0ECECF1E100E0A5
:100220000BBF02C007900D92AC30B107D9F71BBECF
:1002300012E0ACE0B2E001C01D92AB32B107E1F7D1
:100240000E94C0070C94E4080C94000081E090E048
:10025000089581E090E090930D0280930C02089540
:1002600080910C0290910D0290930F0280930E02E8
:100270000895E0911002F0911102EE0FFF1FEE5F62
:10028000FD4F0190F081E02D19959093110280931C
:100290001002029721F086E060E00E948C0708952A
:1002A000CF93DF93C0E0D0E015C086E061E00E940C
:1002B0008C0764EF71E080E090E00E943E0586E0EC
:1002C00060E00E948C0764EF71E080E090E00E94A3
:1002D0003E0521968091000290910102C817D9072E
:1002E00024F382E090E0DF91CF91089586E061E011
:1002F0000E948C0768EE73E080E090E00E943E056B
:1003000086E060E00E948C0768EE73E080E090E099
:100310000E943E0584E090E00895CF93DF93C0E013
:10032000D0E084E06FEF70E00E94F9056AEF70E0C2
:1003300080E090E00E943E0584E060E070E00E9472
:10034000F9056AEF70E080E090E00E943E0521969A
:10035000C430D10531F7CFEFD0E084E0BE010E9478
:10036000F905259764E170E080E090E00E943E0589
:10037000209799F784E060E070E00E94F90581E041
:1003800090E0DF91CF9108952F923F924F925F922C
:100390006F927F928F929F92AF92BF92CF92DF9295
:1003A000EF92FF920F931F93DF93CF9300D000D073
:1003B000CDB7DEB70E94300569597A43804090403E
:1003C00008F0CBC00E943005AC01CB01DA01898373
:1003D0009A83AB83BC830E943005AC01CB01DA0168
:1003E0001C012D010F2EF0E06F2EF0E07F2EFFE7B5
:1003F0008F2EF3E49F2EF02D1E821D820E94300569
:100400005B016C018601750189819A81AB81BC8198
:10041000E81AF90A0A0B1B0B99E7E916F104010522
:1004200011050CF1C401B30120E030E040E050E0E0
:100430000E94E0081816BCF4C401B30120E030E0CB
:1004400040EA50E40E94D1073B014C010E943A0867
:100450009B01AC0188E0B9010E94F905A982BA822A
:10046000CB82DC8241C0C401B30120E030E040E037
:1004700050E00E9436081816BCF1A9EEEA16A3E077
:10048000FA06A0E00A07A0E01A0744F088E060E05E
:1004900070E00E94F90522E030E061C0BFEEEB168B
:1004A000B2E0FB06B0E00B07B0E01B077CF4E5EF21
:1004B000EE16E1E0FE06E0E00E07E0E01E077CF449
:1004C000FBEFEF16F1040105110524F088E060E070
:1004D00070E008C01E141F04100611062CF488E0FA
:1004E0006FEF70E00E94F90580910C0290910D026F
:1004F000892B19F468EE73E002C064E670E0A6018F
:1005000095012219330944095509CB01AA2797FD02
:10051000A095BA2F82179307A407B50794F48D818D
:100520009E81892B19F01E821D8204C0AFEFB0E0BE
:10053000BE83AD8384E06D817E810E94F905150143
:10054000260180910E0290910F02892B09F456CF5B
:1005500086E061E00E948C0751CF23E030E0C901C2
:1005600026960FB6F894DEBF0FBECDBFCF91DF91B8
:100570001F910F91FF90EF90DF90CF90BF90AF90C1
:100580009F908F907F906F905F904F903F902F90B3
:10059000089586E061E00E94D90684E061E00E944F
:1005A000D90688E061E00E94D90680E069E271E046
:1005B00043E050E00E94E40281E060E371E043E048
:1005C00050E00E94E4020895883008F078C0E82FD7
:1005D000F0E0EE0FFF1FEE5EFD4F7183608383300E
:1005E000D9F0843030F4813009F444C0823060F4B2
:1005F00039C0853051F18530D8F0863009F446C0D5
:10060000873009F05CC04FC0809169008C7F842BDB
:1006100080936900E89A089580916900440F551FFE
:10062000440F551F837F842B80936900E99A0895B6
:100630008091690074E0440F551F7A95E1F78F7C33
:10064000842B80936900EA9A08958091690066E09E
:10065000440F551F6A95E1F78F73842B80936900CF
:10066000EB9A089580916A008C7F842B80936A00B6
:10067000EC9A089580916A00440F551F440F551F4E
:10068000837F842B80936A00ED9A089580916A009D
:1006900024E0440F551F2A95E1F78F7C842B80932B
:1006A0006A00EE9A089580916A0096E0440F551F03
:1006B0009A95E1F78F73842B80936A00EF9A0895DF
:1006C0001F920F920FB60F920BB60F9211242F9319
:1006D0003F934F935F936F937F938F939F93AF93CA
:1006E000BF93EF93FF938091160290911702892B8D
:1006F00029F0E0911602F09117021995FF91EF9100
:10070000BF91AF919F918F917F916F915F914F9129
:100710003F912F910F900BBE0F900FBE0F901F9027
:1007200018951F920F920FB60F920BB60F921124CD
:100730002F933F934F935F936F937F938F939F93E9
:10074000AF93BF93EF93FF9380911802909119029A
:10075000892B29F0E0911802F09119021995FF9167
:10076000EF91BF91AF919F918F917F916F915F9129
:100770004F913F912F910F900BBE0F900FBE0F9096
:100780001F9018951F920F920FB60F920BB60F92F3
:1007900011242F933F934F935F936F937F938F9386
:1007A0009F93AF93BF93EF93FF9380911A02909121
:1007B0001B02892B29F0E0911A02F0911B02199576
:1007C000FF91EF91BF91AF919F918F917F916F9129
:1007D0005F914F913F912F910F900BBE0F900FBEE5
:1007E0000F901F9018951F920F920FB60F920BB695
:1007F0000F9211242F933F934F935F936F937F93A7
:100800008F939F93AF93BF93EF93FF9380911C02BD
:1008100090911D02892B29F0E0911C02F0911D029C
:100820001995FF91EF91BF91AF919F918F917F911A
:100830006F915F914F913F912F910F900BBE0F9051
:100840000FBE0F901F9018951F920F920FB60F9228
:100850000BB60F9211242F933F934F935F936F9397
:100860007F938F939F93AF93BF93EF93FF93809169
:10087000120290911302892B29F0E0911202F0915B
:1008800013021995FF91EF91BF91AF919F918F91B5
:100890007F916F915F914F913F912F910F900BBE80
:1008A0000F900FBE0F901F9018951F920F920FB6CA
:1008B0000F920BB60F9211242F933F934F935F9398
:1008C0006F937F938F939F93AF93BF93EF93FF9318
:1008D0008091140290911502892B29F0E091140265
:1008E000F09115021995FF91EF91BF91AF919F91F2
:1008F0008F917F916F915F914F913F912F910F90C9
:100900000BBE0F900FBE0F901F9018951F920F9265
:100910000FB60F920BB60F9211242F933F934F9364
:100920005F936F937F938F939F93AF93BF93EF9357
:10093000FF9380911E0290911F02892B29F0E09174
:100940001E02F0911F021995FF91EF91BF91AF9197
:100950009F918F917F916F915F914F913F912F91D7
:100960000F900BBE0F900FBE0F901F9018951F9207
:100970000F920FB60F920BB60F9211242F933F9345
:100980004F935F936F937F938F939F93AF93BF9397
:10099000EF93FF938091200290912102892B29F0FF
:1009A000E0912002F09121021995FF91EF91BF9102
:1009B000AF919F918F917F916F915F914F913F91F7
:1009C0002F910F900BBE0F900FBE0F901F90189598
:1009D0001F920F920FB60F9211242F933F938F9374
:1009E0009F93AF93BF938091260290912702A0918D
:1009F0002802B091290230912A020196A11DB11D51
:100A0000232F2D5F2D3720F02D570196A11DB11DED
:100A100020932A028093260290932702A093280213
:100A2000B09329028091220290912302A091240286
:100A3000B09125020196A11DB11D809322029093D1
:100A40002302A0932402B0932502BF91AF919F91FE
:100A50008F913F912F910F900FBE0F901F9018957F
:100A60008FB7F894209126023091270240912802F6
:100A7000509129028FBFB901CA0108959B01AC01B1
:100A80007FB7F8948091220290912302A0912402D2
:100A9000B091250266B5A89B05C06F3F19F001967D
:100AA000A11DB11D7FBFBA2FA92F982F8827860FB0
:100AB000911DA11DB11D62E0880F991FAA1FBB1FC8
:100AC0006A95D1F7BC012DC0FFB7F894809122023E
:100AD00090912302A0912402B0912502E6B5A89B33
:100AE00005C0EF3F19F00196A11DB11DFFBFBA2F40
:100AF000A92F982F88278E0F911DA11DB11DE2E00F
:100B0000880F991FAA1FBB1FEA95D1F7861B970B69
:100B1000885E9340C8F221503040404050406851B8
:100B20007C4F211531054105510571F608957894E2
:100B300084B5826084BD84B5816084BD85B58260E2
:100B400085BD85B5816085BDEEE6F0E08081816080
:100B50008083E1E8F0E01082808182608083808180
:100B600081608083E0E8F0E0808181608083E1EB58
:100B7000F0E0808184608083E0EBF0E08081816040
:100B80008083E1E9F0E08081826080838081816000
:100B90008083E0E9F0E0808181608083E1EAF0E039
:100BA000808182608083808181608083E0EAF0E0E0
:100BB000808181608083E1E2F1E0808182608083D6
:100BC000808181608083E0E2F1E0808181608083C8
:100BD000EAE7F0E0808184608083808182608083A6
:100BE0008081816080838081806880831092C100D1
:100BF00008951F93CF93DF93182FEB0161E00E94BC
:100C0000D906209709F4CAC0CF3FD10509F4C9C05D
:100C1000E12FF0E0E254FE4F8491893009F466C080
:100C20008A30B0F48430F1F1853040F4823059F1EB
:100C3000833070F5813009F0AEC020C0873009F4F0
:100C400043C0883008F048C0863009F0A4C034C0E2
:100C50008D3009F478C08E3038F48B3009F45AC0E6
:100C60008C3008F066C04CC0803109F480C08131FE
:100C700009F487C08F3009F08EC06FC084B58068DA
:100C800084BDC7BD92C084B5806284BDC8BD8DC01F
:100C900080918000806880938000D0938900C09309
:100CA000880083C080918000806280938000D09310
:100CB0008B00C0938A0079C08091B00080688093D7
:100CC000B000C093B30071C08091B0008062809387
:100CD000B000C093B40069C0809190008068809398
:100CE0009000D0939900C09398005FC080919000CD
:100CF000806280939000D0939B00C0939A0055C06F
:100D000080919000886080939000D0939D00C09364
:100D10009C004BC08091A00080688093A0008091CF
:100D2000A0008F7B8093A000D093A900C093A8005F
:100D30003CC08091A00080628093A000D093AB0063
:100D4000C093AA0032C08091A00088608093A00068
:100D5000D093AD00C093AC0028C080912001806882
:100D600080932001D0932901C09328011EC0809157
:100D70002001806280932001D0932B01C0932A012F
:100D800014C080912001886080932001D0932D01B0
:100D9000C0932C010AC0C038D1051CF4812F60E03B
:100DA00002C0812F61E00E948C07DF91CF911F91DB
:100DB0000895CF93DF93482F50E0CA0188589E4F83
:100DC000FC0134914E5C5E4FFA018491882369F1F5
:100DD00090E0880F991FFC01EC51FF4FA591B49151
:100DE000FC01E250FF4FC591D491662351F42FB717
:100DF000F8948C91932F909589238C9388818923E3
:100E00000BC0623061F42FB7F8948C91932F9095BA
:100E100089238C938881832B88832FBF06C09FB73B
:100E2000F8948C91832B8C939FBFDF91CF91089581
:100E3000893009F449C08A30A0F4843051F18530FA
:100E400040F4823079F1833000F5813009F063C0DD
:100E500026C0873079F1883098F5863009F05BC07C
:100E600025C08D3009F442C08E3028F48B30B1F1AA
:100E70008C30C0F52DC0803109F442C0813109F4B5
:100E800045C08F3009F047C037C0809180008F7710
:100E900003C0809180008F7D80938000089584B589
:100EA0008F7702C084B58F7D84BD08958091B00096
:100EB0008F7703C08091B0008F7D8093B00008953C
:100EC000809190008F7707C0809190008F7D03C044
:100ED00080919000877F8093900008958091A0007A
:100EE0008F7707C08091A0008F7D03C08091A00004
:100EF000877F8093A0000895809120018F7703C0A1
:100F0000809120018F7D80932001089580912001A0
:100F1000877F809320010895FF920F931F93F62EF1
:100F2000482F50E0CA0182549E4FFC012491CA010F
:100F300088589E4FFC0114914E5C5E4FFA0104915B
:100F40000023C9F0222319F0822F0E941807E02FF6
:100F5000F0E0EE0FFF1FE250FF4FA591B4919FB755
:100F6000F894FF2021F48C911095812302C08C917C
:100F7000812B8C939FBF1F910F91FF90089508952F
:100F8000CF93DF930E9497050E94BF070E94C9027A
:100F9000C0E0D0E00E9439012097E1F30E940000F8
:100FA000F9CF5058BB27AA270ED0D0C0C1D030F0FF
:100FB000C6D020F031F49F3F11F41EF4B6C00EF4F9
:100FC000E095E7FBACC0E92FD2D080F3BA176207F7
:100FD00073078407950718F071F49EF5EAC00EF4C4
:100FE000E0950B2EBA2FA02D0B01B90190010C0139
:100FF000CA01A0011124FF27591B99F0593F50F451
:10100000503E68F11A16F040A22F232F342F4427A8
:10101000585FF3CF469537952795A795F0405395A0
:10102000C9F77EF41F16BA0B620B730B840BBAF070
:101030009150A1F0FF0FBB1F661F771F881FC2F7DB
:101040000EC0BA0F621F731F841F48F487957795EF
:101050006795B795F7959E3F08F0B3CF9395880FA6
:1010600008F09927EE0F97958795089534D008F4E6
:1010700081E0089504D06894B1119CC008957FD098
:1010800088F09F5790F0B92F9927B751A0F0D1F071
:10109000660F771F881F991F1AF0BA95C9F712C0FB
:1010A000B13081F086D0B1E0089583C0672F782FEA
:1010B0008827B85F39F0B93FCCF386957795679567
:1010C000B395D9F73EF490958095709561957F4FD3
:1010D0008F4F9F4F0895990F0008550FAA0BE0E816
:1010E000FEEF16161706E807F907C0F012161306EA
:1010F000E407F50798F0621B730B840B950B39F42A
:101100000A2661F0232B242B252B21F408950A268F
:1011100009F4A140A6958FEF811D811D089597F9CF
:101120009F6780E870E060E008959FEF80EC08958D
:1011300000240A94161617061806090608950024B6
:101140000A9412161306140605060895092E039430
:10115000000C11F4882352F0BB0F40F4BF2B11F4A4
:1011600060FF04C06F5F7F4F8F4F9F4F089557FD03
:101170009058440F551F59F05F3F71F04795880F05
:1011800097FB991F61F09F3F79F08795089512169C
:1011900013061406551FF2CF4695F1DF08C0161648
:1011A00017061806991FF1CF8695710561050894F9
:1011B0000895E894BB2766277727CB0197F9089510
:0C11C0008ADF08F48FEF0895F894FFCF49
:0C11CC00050076012601C4018D015001D0
:00000001FF
