:100000000C9402010C94B9030C94EA030C941B04A5
:100010000C944C040C947D040C94AE040C94DF04FA
:100020000C9410050C9424010C9424010C942401CC
:100030000C9424010C9424010C9424010C942401AC
:100040000C9424010C9424010C9424010C9424019C
:100050000C9424010C9424010C9424010C9441056B
:100060000C9424010C9424010C9424010C9424017C
:100070000C9424010C9424010C9424010C9424016C
:100080000C9424010C9424010C9424010C9424015C
:100090000C9424010C9424010C9424010C9424014C
:1000A0000C9424010C9424010C9424010C9424013C
:1000B0000C9424010C9424010C9424010C9424012C
:1000C0000C9424010C9424010C9424010C9424011C
:1000D0000C9424010C9424010C9424010C9424010C
:1000E0000C94240100002100240027002A002D0088
:1000F0003000330001010000040107010A01000083
:100100002200250028002B002E00310034000201BF
:100110000000050108010B0100002000230026005B
:1001200029002C002F00320000010000030106010D
:10013000090105050505070508080808020202026D
:100140000A0A080804040404010101010101010173
:100150000303030303030303040707070C0C0C0C3E
:100160000C0C0C0C02020202060606060606060627
:100170000B0B0B0B0B0B0B0B0102102020080810B4
:100180002040102040800201020108040201010207
:1001900004081020408080402010080402018004E0
:1001A000020180402010080402010804020101023B
:1001B0000408102040800102040810204080000044
:1001C000090A02080B0C0D070603040100000000D9
:1001D000000000000000000000000000000000001F
:1001E0000000000000000000000011100F000000DF
:1001F00000000000000000000000000000000000FF
:100200000000000011241FBECFEFD1E2DEBFCDBF42
:1002100000E00CBF12E0A0E0B2E0E6EFF4E100E0A5
:100220000BBF02C007900D92AE30B107D9F71BBECD
:1002300012E0AEE0B2E001C01D92AD32B107E1F7CD
:100240000E944D080C94790A0C94000081E090E023
:10025000089581E090E090930F0280930E0208953C
:1002600080910E0290910F029093110280931002E0
:100270000895E0911202F0911302EE0FFF1FEE5F5E
:10028000FD4F0190F081E02D19959093130280931A
:100290001202029721F086E060E00E94190808959A
:1002A000CF93DF93C0E0D0E015C086E061E00E940C
:1002B00019086AEF70E080E090E00E94970586E000
:1002C00060E00E9419086AEF70E080E090E00E9410
:1002D000970521968091000290910102C817D907D5
:1002E00024F382E090E0DF91CF91089586E061E011
:1002F0000E94190864EF71E080E090E00E94970589
:1003000086E060E00E94190864EF71E080E090E010
:100310000E94970584E090E00895CF93DF93C0E0BA
:10032000D0E084E06FEF70E00E9486066DE770E039
:1003300080E090E00E94970584E060E070E00E9419
:1003400086066DE770E080E090E00E9497052196B8
:10035000C430D10531F7CFEFD0E084E0BE010E9478
:100360008606259764E170E080E090E00E949705A2
:10037000209799F784E060E070E00E94860681E0B3
:1003800090E0DF91CF9108952F923F924F925F922C
:100390006F927F928F929F92AF92BF92CF92DF9295
:1003A000EF92FF920F931F93DF93CF93CDB7DEB7FA
:1003B0002A970FB6F894DEBF0FBECDBF0E94890505
:1003C00069597A438040904008F018C10E9489051D
:1003D000AC01CB01DA0189839A83AB83BC830E9491
:1003E0008905AC01CB01DA011C012D010F2EF0E0D3
:1003F0006F2EF0E07F2EFFE78F2EF3E49F2EF02D7F
:100400001A8619860E9489055B016C0186E30E94A9
:10041000520698878F8387E30E9452069E838D83BE
:100420008601750189819A81AB81BC81E81AF90A3C
:100430000A0B1B0B99E7E916F104010511050CF1F4
:10044000C401B30120E030E040E050E00E94120A15
:100450001816BCF4C401B30120E030E040EA50E4D7
:100460000E945E083B014C010E942F099B01AC01D8
:1004700088E0B9010E948606A982BA82CB82DC821A
:1004800044C0C401B30120E030E040E050E00E94ED
:10049000C3081816D4F1A1EDEA16A7E0FA06A0E009
:1004A0000A07A0E01A0744F088E060E070E00E94CC
:1004B000860622E030E0A4C0BDEDEB16B5E0FB06F9
:1004C000B0E00B07B0E01B0794F4E9EEEE16E3E0B2
:1004D000FE06E0E00E07E0E01E0794F4F5EFEF16ED
:1004E000F1E0FF06F0E00F07F0E01F0724F088E0DE
:1004F00060E070E008C01E141F04100611062CF402
:1005000088E06FEF70E00E94860680910E02909165
:100510000F02892B19F424EF31E002C022E330E00E
:10052000B901882777FD8095982F0E9462097B0189
:100530008C012F813885B901882777FD8095982F08
:100540000E94620920E030E04AEF53E40E94C708AD
:100550009B01AC01C801B7010E94160A8601750112
:10056000E218F308040915090E942F09882777FD6E
:100570008095982F6E157F058007910794F48985E3
:100580009A85892B19F01A86198604C0AFEFB0E05E
:10059000BA87A98784E069857A850E948606150155
:1005A00026018091100290911102892B09F42ACF23
:1005B000ED81FE81BF01882777FD8095982F0E94ED
:1005C000620920E030EC4FE754E40E94C70820E0C5
:1005D00030E04FE753E40E94160A9B01AC0160E053
:1005E00070E08FE793E40E945E080E942F099B0150
:1005F000AC0186E0B9010E94860604CF23E030E01A
:10060000C9012A960FB6F894DEBF0FBECDBFCF91B9
:10061000DF911F910F91FF90EF90DF90CF90BF90EF
:10062000AF909F908F907F906F905F904F903F9092
:100630002F90089586E061E00E94660784E061E003
:100640000E94660788E061E00E94660786E360E03A
:100650000E94660787E360E00E94660780E069E227
:1006600071E043E050E00E943D0381E060E371E00F
:1006700043E050E00E943D030895883008F078C0C0
:10068000E82FF0E0EE0FFF1FEC5EFD4F71836083FB
:100690008330D9F0843030F4813009F444C08230A2
:1006A00060F439C0853051F18530D8F0863009F4D6
:1006B00046C0873009F05CC04FC0809169008C7FD4
:1006C000842B80936900E89A089580916900440F13
:1006D000551F440F551F837F842B80936900E99A2F
:1006E00008958091690074E0440F551F7A95E1F7F1
:1006F0008F7C842B80936900EA9A08958091690029
:1007000066E0440F551F6A95E1F78F73842B809341
:100710006900EB9A089580916A008C7F842B809306
:100720006A00EC9A089580916A00440F551F440FA7
:10073000551F837F842B80936A00ED9A08958091E2
:100740006A0024E0440F551F2A95E1F78F7C842B23
:1007500080936A00EE9A089580916A0096E0440FB3
:10076000551F9A95E1F78F73842B80936A00EF9A57
:1007700008951F920F920FB60F920BB60F9211248D
:100780002F933F934F935F936F937F938F939F9399
:10079000AF93BF93EF93FF9380911802909119024A
:1007A000892B29F0E0911802F09119021995FF9117
:1007B000EF91BF91AF919F918F917F916F915F91D9
:1007C0004F913F912F910F900BBE0F900FBE0F9046
:1007D0001F9018951F920F920FB60F920BB60F92A3
:1007E00011242F933F934F935F936F937F938F9336
:1007F0009F93AF93BF93EF93FF9380911A029091D1
:100800001B02892B29F0E0911A02F0911B02199525
:10081000FF91EF91BF91AF919F918F917F916F91D8
:100820005F914F913F912F910F900BBE0F900FBE94
:100830000F901F9018951F920F920FB60F920BB644
:100840000F9211242F933F934F935F936F937F9356
:100850008F939F93AF93BF93EF93FF9380911C026D
:1008600090911D02892B29F0E0911C02F0911D024C
:100870001995FF91EF91BF91AF919F918F917F91CA
:100880006F915F914F913F912F910F900BBE0F9001
:100890000FBE0F901F9018951F920F920FB60F92D8
:1008A0000BB60F9211242F933F934F935F936F9347
:1008B0007F938F939F93AF93BF93EF93FF93809119
:1008C0001E0290911F02892B29F0E0911E02F091E7
:1008D0001F021995FF91EF91BF91AF919F918F9159
:1008E0007F916F915F914F913F912F910F900BBE30
:1008F0000F900FBE0F901F9018951F920F920FB67A
:100900000F920BB60F9211242F933F934F935F9347
:100910006F937F938F939F93AF93BF93EF93FF93C7
:100920008091140290911502892B29F0E091140214
:10093000F09115021995FF91EF91BF91AF919F91A1
:100940008F917F916F915F914F913F912F910F9078
:100950000BBE0F900FBE0F901F9018951F920F9215
:100960000FB60F920BB60F9211242F933F934F9314
:100970005F936F937F938F939F93AF93BF93EF9307
:10098000FF938091160290911702892B29F0E09134
:100990001602F09117021995FF91EF91BF91AF9157
:1009A0009F918F917F916F915F914F913F912F9187
:1009B0000F900BBE0F900FBE0F901F9018951F92B7
:1009C0000F920FB60F920BB60F9211242F933F93F5
:1009D0004F935F936F937F938F939F93AF93BF9347
:1009E000EF93FF938091200290912102892B29F0AF
:1009F000E0912002F09121021995FF91EF91BF91B2
:100A0000AF919F918F917F916F915F914F913F91A6
:100A10002F910F900BBE0F900FBE0F901F90189547
:100A20001F920F920FB60F920BB60F9211242F93B5
:100A30003F934F935F936F937F938F939F93AF9366
:100A4000BF93EF93FF938091220290912302892B11
:100A500029F0E0912202F09123021995FF91EF9184
:100A6000BF91AF919F918F917F916F915F914F91C6
:100A70003F912F910F900BBE0F900FBE0F901F90C4
:100A800018951F920F920FB60F9211242F933F9338
:100A90008F939F93AF93BF938091280290912902E7
:100AA000A0912A02B0912B0230912C020196A11D37
:100AB000B11D232F2D5F2D3720F02D570196A11D3D
:100AC000B11D20932C028093280290932902A093B9
:100AD0002A02B0932B028091240290912502A091CA
:100AE0002602B09127020196A11DB11D8093240218
:100AF00090932502A0932602B0932702BF91AF9155
:100B00009F918F913F912F910F900FBE0F901F904B
:100B100018958FB7F89420912802309129024091BE
:100B20002A0250912B028FBFB901CA0108959B017F
:100B3000AC017FB7F8948091240290912502A09196
:100B40002602B091270266B5A89B05C06F3F19F039
:100B50000196A11DB11D7FBFBA2FA92F982F8827FD
:100B6000860F911DA11DB11D62E0880F991FAA1F5C
:100B7000BB1F6A95D1F7BC012DC0FFB7F8948091D7
:100B8000240290912502A0912602B0912702E6B599
:100B9000A89B05C0EF3F19F00196A11DB11DFFBF35
:100BA000BA2FA92F982F88278E0F911DA11DB11D37
:100BB000E2E0880F991FAA1FBB1FEA95D1F7861B99
:100BC000970B885E9340C8F221503040404050401F
:100BD00068517C4F211531054105510571F6089585
:100BE000789484B5826084BD84B5816084BD85B508
:100BF000826085BD85B5816085BDEEE6F0E08081CF
:100C000081608083E1E8F0E01082808182608083EF
:100C1000808181608083E0E8F0E080818160808372
:100C2000E1EBF0E0808184608083E0EBF0E08081A4
:100C300081608083E1E9F0E080818260808380814F
:100C400081608083E0E9F0E0808181608083E1EA77
:100C5000F0E0808182608083808181608083E0EA2F
:100C6000F0E0808181608083E1E2F1E08081826058
:100C70008083808181608083E0E2F1E08081816017
:100C80008083EAE7F0E080818460808380818260F5
:100C900080838081816080838081806880831092DE
:100CA000C1000895382F863308F0365320917B0019
:100CB000832F86958695869590E08170907043E0AD
:100CC000880F991F4A95E1F7277F282B20937B00F7
:100CD000377080910C028295880F880F807C832B5F
:100CE00080937C0080917A00806480937A00809168
:100CF0007A0086FDFCCF2091780040917900942FF6
:100D000080E030E0282B392BC90108951F93CF9341
:100D1000DF93182FEB0161E00E946607209709F42A
:100D2000CAC0CF3FD10509F4C9C0E12FF0E0E254B9
:100D3000FE4F8491893009F466C08A30B0F4843063
:100D4000F1F1853040F4823059F1833070F5813013
:100D500009F0AEC020C0873009F443C0883008F0E5
:100D600048C0863009F0A4C034C08D3009F478C082
:100D70008E3038F48B3009F45AC08C3008F066C0DD
:100D80004CC0803109F480C0813109F487C08F30B4
:100D900009F08EC06FC084B5806884BDC7BD92C0A5
:100DA00084B5806284BDC8BD8DC08091800080689C
:100DB00080938000D0938900C093880083C0809185
:100DC0008000806280938000D0938B00C0938A0063
:100DD00079C08091B00080688093B000C093B30068
:100DE00071C08091B00080628093B000C093B40065
:100DF00069C080919000806880939000D0939900A2
:100E0000C09398005FC080919000806280939000B2
:100E1000D0939B00C0939A0055C080919000886049
:100E200080939000D0939D00C0939C004BC0809114
:100E3000A00080688093A0008091A0008F7B8093A9
:100E4000A000D093A900C093A8003CC08091A0004E
:100E500080628093A000D093AB00C093AA0032C000
:100E60008091A00088608093A000D093AD00C093D3
:100E7000AC0028C080912001806880932001D0932D
:100E80002901C09328011EC08091200180628093B7
:100E90002001D0932B01C0932A0114C0809120011E
:100EA000886080932001D0932D01C0932C010AC04B
:100EB000C038D1051CF4812F60E002C0812F61E0B1
:100EC0000E941908DF91CF911F910895CF93DF936E
:100ED000482F50E0CA0188589E4FFC0134914E5C67
:100EE0005E4FFA018491882369F190E0880F991F81
:100EF000FC01EC51FF4FA591B491FC01E250FF4F72
:100F0000C591D491662351F42FB7F8948C91932F07
:100F1000909589238C93888189230BC0623061F47A
:100F20002FB7F8948C91932F909589238C93888177
:100F3000832B88832FBF06C09FB7F8948C91832B97
:100F40008C939FBFDF91CF910895893009F449C0F8
:100F50008A30A0F4843051F1853040F4823079F148
:100F6000833000F5813009F063C026C0873079F105
:100F7000883098F5863009F05BC025C08D3009F4C3
:100F800042C08E3028F48B30B1F18C30C0F52DC0CA
:100F9000803109F442C0813109F445C08F3009F035
:100FA00047C037C0809180008F7703C08091800058
:100FB0008F7D80938000089584B58F7702C084B5BB
:100FC0008F7D84BD08958091B0008F7703C080919C
:100FD000B0008F7D8093B0000895809190008F774E
:100FE00007C0809190008F7D03C080919000877F23
:100FF0008093900008958091A0008F7707C0809122
:10100000A0008F7D03C08091A000877F8093A00007
:101010000895809120018F7703C0809120018F7DFA
:1010200080932001089580912001877F8093200183
:101030000895FF920F931F93F62E482F50E0CA0198
:1010400082549E4FFC012491CA0188589E4FFC0196
:1010500014914E5C5E4FFA0104910023C9F02223E3
:1010600019F0822F0E94A507E02FF0E0EE0FFF1F7E
:10107000E250FF4FA591B4919FB7F894FF2021F45F
:101080008C911095812302C08C91812B8C939FBFF2
:101090001F910F91FF9008950895CF93DF930E94C1
:1010A000F0050E944C080E941A03C0E0D0E00E94A4
:1010B00039012097E1F30E940000F9CF5058BB2777
:1010C000AA270ED075C166D130F06BD120F031F473
:1010D0009F3F11F41EF45BC10EF4E095E7FB51C194
:1010E000E92F77D180F3BA17620773078407950752
:1010F00018F071F49EF58FC10EF4E0950B2EBA2F07
:10110000A02D0B01B90190010C01CA01A00111240D
:10111000FF27591B99F0593F50F4503E68F11A16B9
:10112000F040A22F232F342F4427585FF3CF46954A
:1011300037952795A795F0405395C9F77EF41F166C
:10114000BA0B620B730B840BBAF09150A1F0FF0F36
:10115000BB1F661F771F881FC2F70EC0BA0F621F22
:10116000731F841F48F4879577956795B795F79512
:101170009E3F08F0B3CF9395880F08F09927EE0FA4
:10118000979587950895D9D008F481E008950CD0FB
:101190000FC107D140F0FED030F021F45F3F19F0CD
:1011A000F0C0511139C1F3C014D198F39923C9F398
:1011B0005523B1F3951B550BBB27AA27621773075D
:1011C000840738F09F5F5F4F220F331F441FAA1F11
:1011D000A9F333D00E2E3AF0E0E830D091505040D1
:1011E000E695001CCAF729D0FE2F27D0660F771F7F
:1011F000881FBB1F261737074807AB07B0E809F061
:10120000BB0B802DBF01FF2793585F4F2AF09E3FF5
:10121000510568F0B6C000C15F3FECF3983EDCF3C7
:10122000869577956795B795F7959F5FC9F7880F6E
:10123000911D9695879597F90895E1E0660F771FC0
:10124000881FBB1F621773078407BA0720F0621B51
:10125000730B840BBA0BEE1F88F7E095089504D04A
:101260006894B111D9C00895BCD088F09F5790F010
:10127000B92F9927B751A0F0D1F0660F771F881FBB
:10128000991F1AF0BA95C9F712C0B13081F0C3D0D6
:10129000B1E00895C0C0672F782F8827B85F39F074
:1012A000B93FCCF3869577956795B395D9F73EF41A
:1012B00090958095709561957F4F8F4F9F4F0895C2
:1012C000E89409C097FB3EF49095809570956195E0
:1012D0007F4F8F4F9F4F9923A9F0F92F96E9BB2796
:1012E0009395F695879577956795B795F111F8CF12
:1012F000FAF4BB0F11F460FF1BC06F5F7F4F8F4F7D
:101300009F4F16C0882311F096E911C0772321F072
:101310009EE8872F762F05C0662371F096E8862F0A
:1013200070E060E02AF09A95660F771F881FDAF761
:10133000880F9695879597F90895990F0008550F8E
:10134000AA0BE0E8FEEF16161706E807F907C0F04B
:1013500012161306E407F50798F0621B730B840B53
:10136000950B39F40A2661F0232B242B252B21F42D
:1013700008950A2609F4A140A6958FEF811D811DCD
:10138000089597F99F6780E870E060E008959FEF07
:1013900080EC089500240A9416161706180609060C
:1013A000089500240A9412161306140605060895DB
:1013B000092E0394000C11F4882352F0BB0F40F463
:1013C000BF2B11F460FF04C06F5F7F4F8F4F9F4FA3
:1013D000089557FD9058440F551F59F05F3F71F025
:1013E0004795880F97FB991F61F09F3F79F087958C
:1013F0000895121613061406551FF2CF4695F1DF15
:1014000008C0161617061806991FF1CF86957105A4
:10141000610508940895E894BB2766277727CB01D8
:1014200097F908958ADF08F48FEF08950BD0C0CFA5
:10143000B1DF28F0B6DF18F0952309F0A2CFA7CFCF
:101440001124EACFC6DFA0F3959FD1F3950F50E0AA
:10145000551F629FF001729FBB27F00DB11D639F66
:10146000AA27F00DB11DAA1F649F6627B00DA11D0C
:10147000661F829F2227B00DA11D621F739FB00DB2
:10148000A11D621F839FA00D611D221F749F332722
:10149000A00D611D231F849F600D211D822F762FBB
:1014A0006A2F11249F5750408AF0E1F088234AF0B8
:1014B000EE0FFF1FBB1F661F771F881F9150504004
:1014C000A9F79E3F510570F05CCFA6CF5F3FECF3CC
:1014D000983EDCF3869577956795B795F795E795F0
:1014E0009F5FC1F7FE2B880F911D9695879597F901
:0614F0000895F894FFCFFF
:0E14F600050076012601C4018D0150010100A0
:00000001FF
